:0A0000000C947E000C94F1010C94A6
:10000A0000000C9400000C9400000C9400000C9466
:10001A0000000C9400000C94AE000C9400000C94A8
:10002A0000000C94E5000C9400000C9400000C9461
:10003A0000000C9400000C9400000C9400000C9436
:10004A0000000C9400000C9400001027E8036400E0
:10005A000A00010000100001100001000000E10088
:10006A007B0046304244004531374200443233393E
:10007A0000433246360042334234004134373200BC
:10008A003935333000383545440037364142003679
:10009A0037363900496E7465727275707420436F11
:1000AA00756E7465723A2000050060016C000500E7
:1000BA006501710005006A01760005006F017B0089
:1000CA0005007401800005007901850005007E01A4
:1000DA008A00050083018F0005008801940005004D
:1000EA008D019900140092019E000600040066002A
:1000FA000000F894EE27ECBBF1E0FBBFEBBFE5BFD5
:10010A00F8E1F1BDE1BD8DE0A2E0BB27ED938A9550
:10011A00E9F780E094E0A0E6ED930197E9F7E2EBD6
:10012A00F0E085919591009761F0A591B5910590C0
:10013A001590BF01F00105900D920197E1F7FB01BF
:10014A00F0CFEFE5EDBFE4E0EEBFC0E6D1E00C94FE
:10015A001702A89B02C0A89801C0A89A6DBC6CBCE3
:10016A001895E881E7B98BE18A95F1F7369A349BBD
:10017A00FECF349AE4B1F5B104C05D9BFECFE881AD
:10018A00ECB9219608950E946B03EC81FD81FA93E4
:10019A00EA930E94BB028F0120E030E0201731076A
:1001AA0058F4F901AC81BD81AE0FBF1FEC91EA93FF
:1001BA00E4DF2F5F3F4FF2CF0E9470032696089527
:1001CA000E94C5021A931CB1103310F01A3328F09A
:1001DA00113410F0173408F00EC0E091B701F09115
:1001EA00B801EE54FE4F1083A7EBB1E0ED91FD91FB
:1001FA003196FE93EE93A091B701B091B80114978E
:10020A0011F00C9493010E94D302E0E6F1E00E94FF
:10021A00D80239F4E0EFF0E03F01EDEBF0E04F01F6
:10022A007DC00E94D302E5E6F1E00E94D80239F4CB
:10023A00E1EEF0E03F01EBE7F0E04F016FC00E9412
:10024A00D302EAE6F1E00E94D80239F4E2EDF0E0E6
:10025A003F01E9E3F0E04F0161C00E94D302EFE6FB
:10026A00F1E00E94D80239F4E2ECF0E03F01E6EF57
:10027A00F0E04F0153C00E94D302E4E7F1E00E948C
:10028A00D80239F4E3EBF0E03F01E4EBF0E04F0190
:10029A0045C00E94D302E9E7F1E00E94D80239F48E
:1002AA00E4EAF0E03F01E2E7F0E04F0137C00E94E4
:1002BA00D302EEE7F1E00E94D80239F4E5E9F0E072
:1002CA003F01E0E3F0E04F0129C00E94D302E3E8D6
:1002DA00F1E00E94D80239F4E5E8F0E03F01EDEEE2
:1002EA00F0E04F011BC00E94D302E8E8F1E00E944F
:1002FA00D80239F4E6E7F0E03F01EBEAF0E04F011B
:10030A000DC00E94D302EDE8F1E00E94D80231F458
:10031A00E7E6F0E03F01E9E6F0E04F01A091B7011E
:10032A00B091B801149729F4E0E0E093B701E093A3
:10033A00B801E12FF0E0E136A0E0FA0731F4C09B02
:10034A0002C0C09801C0C09A45C0E236A0E0FA07D0
:10035A0031F4C19B02C0C19801C0C19A3BC0E336C7
:10036A00A0E0FA0731F4C29B02C0C29801C0C29A47
:10037A0031C0E436A0E0FA0731F4C39B02C0C39847
:10038A0001C0C39A27C0E536A0E0FA0731F4C49B3E
:10039A0002C0C49801C0C49A1DC0E636A0E0FA079C
:1003AA0031F4C59B02C0C59801C0C59A13C0E7368F
:1003BA00A0E0FA0731F4C69B02C0C69801C0C69AEB
:1003CA0009C0E836A0E0FA0729F4C79B02C0C7981B
:1003DA0001C0C79A199118C00E94C502F20131964C
:1003EA002F01D201EAE0F0E00E942C03AE2ED201E6
:1003FA00EAE0F0E00E946403DE2EE2E9F1E0FA931B
:10040A00EA93C1DE0E94DE02E991EFBFF991E99118
:10041A00B991A9919991899179916991F9901990D4
:10042A0009901895E0E0EBBBEEEFEABBE0E0E8BB31
:10043A00EFEFE7BBE0E0E5BBEFEFE4BBE4E0E2BBF4
:10044A00E2E0E1BBE0E0E3BFE2BFECBFEFBDE5E025
:10045A00EEBD6DBC8CBCE0E0E7BDE6BDEBBDEABD20
:10046A00E9BDE8BDE4E0E9BFE0E0E2BDE5BDE4BD29
:10047A00E3BDEBB7E064EBBFE2E0E5BFE0E0E4BF79
:10048A00E0E4EABFE0E0EBB9E8E9EAB9E6E8E0BDB2
:10049A00E0E0E0BDE3E3E9B9E0E8E8B9E0E0E0BFC5
:1004AA00E7B9E3E8E6B9E0E0EDB9E6BF7894E0E061
:1004BA00EA9357DE66277727E093A601F093A70110
:1004CA006093A8017093A901A8E8B3E180E090E0E5
:1004DA000E940C03DF01CB01EFEFF3E060E070E074
:1004EA000E943F03E093AA01F093AB016093AC0131
:1004FA007093AD01A091AA01B091AB018091AC01BA
:10050A009091AD010E94F002E093AE01F093AF0129
:10051A006093B0017093B1010E94F7020E94F00249
:10052A00AE2E0E94F702EAE0F0E060E070E00E947E
:10053A006703DE2E0E94DE02E8ECF0E0FA93EA930B
:10054A000E940003B4CFFFCFE991F991A991B99123
:10055A006D917191671721F46623D1F7EE270895FB
:10056A00671BE1F3E1E008F4E2500895A991B9911B
:10057A00EE27FF276D91662311F03196FBCF089580
:10058A000A921A92FA926A937A938A939A93AA93FC
:10059A00BA93EA93FA93EFB7EA930895E2EBF1E09C
:1005AA00FA93EA930895FA93EA930E94A902E03033
:1005BA000895EA2DE05DEA930E94C200ED2DE05D08
:1005CA00EA930E94C200EAE0EA930E94C200EDE0C8
:1005DA00EA930C94C200EAE0F0E060E070E00E9466
:1005EA003F030895A091AE01B091AF018091B0018F
:1005FA009091B1010895E991F991309639F080ED21
:10060A0097E00197F1F7A8953197C9F708957A9F6E
:10061A00702D6B9F700DF89F700DE99F700D6A9F8A
:10062A00602D710DFB9F600D711DE89F600D711D9E
:10063A008827FA9FF02D610D781FEB9FF00D611D41
:10064A00781FEA9FE02DF10D681F781F0895002496
:10065A00112490E1AA0FBB1F001C111C0E1A1F0ABD
:10066A0018F40E0E1F1E01C0A1609A9599F7FD019C
:10067A00D00108953F934F935F9300241124442798
:10068A00552730E2AA0FBB1F881F991F001C111C97
:10069A00441F551F0E1A1F0A460B570B28F40E0E3D
:1006AA001F1E461F571F01C0A1603A9559F7FD0149
:1006BA00BC01D001CA015F914F913F910895C7DFF4
:1006CA00FD010895D7DFFD01BC0108953A932A93ED
:1006DA001A930A9308953B812A8119810881089502
:00000001FF
